{
  "contractName": "Election",
  "abi": [
    {
      "constant": true,
      "inputs": [
        {
          "name": "",
          "type": "uint256"
        }
      ],
      "name": "person",
      "outputs": [
        {
          "name": "id",
          "type": "uint256"
        },
        {
          "name": "name",
          "type": "string"
        },
        {
          "name": "votecount",
          "type": "uint256"
        },
        {
          "name": "col",
          "type": "uint256"
        }
      ],
      "payable": false,
      "stateMutability": "view",
      "type": "function"
    },
    {
      "constant": false,
      "inputs": [],
      "name": "renounceOwnership",
      "outputs": [],
      "payable": false,
      "stateMutability": "nonpayable",
      "type": "function"
    },
    {
      "constant": true,
      "inputs": [
        {
          "name": "",
          "type": "uint256"
        }
      ],
      "name": "list",
      "outputs": [
        {
          "name": "id",
          "type": "uint256"
        },
        {
          "name": "name",
          "type": "string"
        },
        {
          "name": "votecount",
          "type": "uint256"
        }
      ],
      "payable": false,
      "stateMutability": "view",
      "type": "function"
    },
    {
      "constant": true,
      "inputs": [
        {
          "name": "",
          "type": "address"
        }
      ],
      "name": "candidates",
      "outputs": [
        {
          "name": "",
          "type": "bool"
        }
      ],
      "payable": false,
      "stateMutability": "view",
      "type": "function"
    },
    {
      "constant": true,
      "inputs": [],
      "name": "owner",
      "outputs": [
        {
          "name": "",
          "type": "address"
        }
      ],
      "payable": false,
      "stateMutability": "view",
      "type": "function"
    },
    {
      "constant": true,
      "inputs": [],
      "name": "isOwner",
      "outputs": [
        {
          "name": "",
          "type": "bool"
        }
      ],
      "payable": false,
      "stateMutability": "view",
      "type": "function"
    },
    {
      "constant": true,
      "inputs": [
        {
          "name": "",
          "type": "address"
        }
      ],
      "name": "voters",
      "outputs": [
        {
          "name": "",
          "type": "bool"
        }
      ],
      "payable": false,
      "stateMutability": "view",
      "type": "function"
    },
    {
      "constant": false,
      "inputs": [
        {
          "name": "newOwner",
          "type": "address"
        }
      ],
      "name": "transferOwnership",
      "outputs": [],
      "payable": false,
      "stateMutability": "nonpayable",
      "type": "function"
    },
    {
      "anonymous": false,
      "inputs": [
        {
          "indexed": true,
          "name": "previousOwner",
          "type": "address"
        },
        {
          "indexed": true,
          "name": "newOwner",
          "type": "address"
        }
      ],
      "name": "OwnershipTransferred",
      "type": "event"
    },
    {
      "constant": false,
      "inputs": [
        {
          "name": "add",
          "type": "address[]"
        },
        {
          "name": "col",
          "type": "uint256[]"
        }
      ],
      "name": "addStudents",
      "outputs": [],
      "payable": false,
      "stateMutability": "nonpayable",
      "type": "function"
    },
    {
      "constant": false,
      "inputs": [
        {
          "name": "_name",
          "type": "string"
        },
        {
          "name": "_col",
          "type": "uint256"
        }
      ],
      "name": "createCandidatePerson",
      "outputs": [],
      "payable": false,
      "stateMutability": "nonpayable",
      "type": "function"
    },
    {
      "constant": false,
      "inputs": [
        {
          "name": "_name",
          "type": "string"
        }
      ],
      "name": "createCandidateList",
      "outputs": [],
      "payable": false,
      "stateMutability": "nonpayable",
      "type": "function"
    },
    {
      "constant": false,
      "inputs": [
        {
          "name": "_candidateId",
          "type": "uint256"
        }
      ],
      "name": "voting",
      "outputs": [],
      "payable": false,
      "stateMutability": "nonpayable",
      "type": "function"
    },
    {
      "constant": true,
      "inputs": [
        {
          "name": "_candidateId",
          "type": "uint256"
        }
      ],
      "name": "getCountP",
      "outputs": [
        {
          "name": "",
          "type": "uint256"
        }
      ],
      "payable": false,
      "stateMutability": "view",
      "type": "function"
    },
    {
      "constant": true,
      "inputs": [
        {
          "name": "_candidateId",
          "type": "uint256"
        }
      ],
      "name": "getCountL",
      "outputs": [
        {
          "name": "",
          "type": "uint256"
        }
      ],
      "payable": false,
      "stateMutability": "view",
      "type": "function"
    },
    {
      "constant": true,
      "inputs": [],
      "name": "resultP",
      "outputs": [
        {
          "name": "",
          "type": "uint256"
        }
      ],
      "payable": false,
      "stateMutability": "view",
      "type": "function"
    },
    {
      "constant": true,
      "inputs": [],
      "name": "resultL",
      "outputs": [
        {
          "name": "",
          "type": "uint256"
        }
      ],
      "payable": false,
      "stateMutability": "view",
      "type": "function"
    }
  ],
  "bytecode": "0x6080604052336000806101000a81548173ffffffffffffffffffffffffffffffffffffffff021916908373ffffffffffffffffffffffffffffffffffffffff1602179055506000809054906101000a900473ffffffffffffffffffffffffffffffffffffffff1673ffffffffffffffffffffffffffffffffffffffff16600073ffffffffffffffffffffffffffffffffffffffff167f8be0079c531659141344cd1fd0a4f28419497f9722a3daafe3b4186f6b6457e060405160405180910390a361176b806100cf6000396000f3fe608060405234801561001057600080fd5b506004361061011d576000357c0100000000000000000000000000000000000000000000000000000000900480638f32d59b116100b4578063cddda32c11610083578063cddda32c14610546578063ce38766814610601578063f2fde38b1461074d578063fd4a77f1146107915761011d565b80638f32d59b14610444578063a3ec138d14610466578063b53b13bd146104c2578063ba0ad88d146105045761011d565b806380c9419e116100f057806380c9419e146102cb57806382b945cb146103805780638ab66a901461039e5780638da5cb5b146103fa5761011d565b8063092a1820146101225780630ac99196146101de578063552d3f5f146101fc578063715018a6146102c1575b600080fd5b61014e6004803603602081101561013857600080fd5b81019080803590602001909291905050506107bf565b6040518085815260200180602001848152602001838152602001828103825285818151815260200191508051906020019080838360005b838110156101a0578082015181840152602081019050610185565b50505050905090810190601f1680156101cd5780820380516001836020036101000a031916815260200191505b509550505050505060405180910390f35b6101e6610896565b6040518082815260200191505060405180910390f35b6102bf6004803603604081101561021257600080fd5b810190808035906020019064010000000081111561022f57600080fd5b82018360208201111561024157600080fd5b8035906020019184600183028401116401000000008311171561026357600080fd5b91908080601f016020809104026020016040519081016040528093929190818152602001838380828437600081840152601f19601f82011690508083019250505050505050919291929080359060200190929190505050610911565b005b6102c9610a4b565b005b6102f7600480360360208110156102e157600080fd5b8101908080359060200190929190505050610b86565b6040518084815260200180602001838152602001828103825284818151815260200191508051906020019080838360005b83811015610343578082015181840152602081019050610328565b50505050905090810190601f1680156103705780820380516001836020036101000a031916815260200191505b5094505050505060405180910390f35b610388610c57565b6040518082815260200191505060405180910390f35b6103e0600480360360208110156103b457600080fd5b81019080803573ffffffffffffffffffffffffffffffffffffffff169060200190929190505050610cd2565b604051808215151515815260200191505060405180910390f35b610402610cf2565b604051808273ffffffffffffffffffffffffffffffffffffffff1673ffffffffffffffffffffffffffffffffffffffff16815260200191505060405180910390f35b61044c610d1b565b604051808215151515815260200191505060405180910390f35b6104a86004803603602081101561047c57600080fd5b81019080803573ffffffffffffffffffffffffffffffffffffffff169060200190929190505050610d72565b604051808215151515815260200191505060405180910390f35b6104ee600480360360208110156104d857600080fd5b8101908080359060200190929190505050610d92565b6040518082815260200191505060405180910390f35b6105306004803603602081101561051a57600080fd5b8101908080359060200190929190505050610e36565b6040518082815260200191505060405180910390f35b6105ff6004803603602081101561055c57600080fd5b810190808035906020019064010000000081111561057957600080fd5b82018360208201111561058b57600080fd5b803590602001918460018302840111640100000000831117156105ad57600080fd5b91908080601f016020809104026020016040519081016040528093929190818152602001838380828437600081840152601f19601f820116905080830192505050505050509192919290505050610eda565b005b61074b6004803603604081101561061757600080fd5b810190808035906020019064010000000081111561063457600080fd5b82018360208201111561064657600080fd5b8035906020019184602083028401116401000000008311171561066857600080fd5b919080806020026020016040519081016040528093929190818152602001838360200280828437600081840152601f19601f820116905080830192505050505050509192919290803590602001906401000000008111156106c857600080fd5b8201836020820111156106da57600080fd5b803590602001918460208302840111640100000000831117156106fc57600080fd5b919080806020026020016040519081016040528093929190818152602001838360200280828437600081840152601f19601f820116905080830192505050505050509192919290505050611004565b005b61078f6004803603602081101561076357600080fd5b81019080803573ffffffffffffffffffffffffffffffffffffffff169060200190929190505050611169565b005b6107bd600480360360208110156107a757600080fd5b81019080803590602001909291905050506111f1565b005b6001818154811015156107ce57fe5b9060005260206000209060040201600091509050806000015490806001018054600181600116156101000203166002900480601f0160208091040260200160405190810160405280929190818152602001828054600181600116156101000203166002900480156108805780601f1061085557610100808354040283529160200191610880565b820191906000526020600020905b81548152906001019060200180831161086357829003601f168201915b5050505050908060020154908060030154905084565b6000806000905060008090505b60018054905081101561090957816001828154811015156108c057fe5b90600052602060002090600402016002015411156108fc576001818154811015156108e757fe5b90600052602060002090600402016000015491505b80806001019150506108a3565b508091505090565b610919610d1b565b151561098d576040517f08c379a00000000000000000000000000000000000000000000000000000000081526004018080602001828103825260208152602001807f4f776e61626c653a2063616c6c6572206973206e6f7420746865206f776e657281525060200191505060405180910390fd5b600060018060806040519081016040528060008152602001868152602001600081526020018581525090806001815401808255809150509060018203906000526020600020906004020160009091929091909150600082015181600001556020820151816001019080519060200190610a07929190611674565b506040820151816002015560608201518160030155505003905080600182815481101515610a3157fe5b906000526020600020906004020160000181905550505050565b610a53610d1b565b1515610ac7576040517f08c379a00000000000000000000000000000000000000000000000000000000081526004018080602001828103825260208152602001807f4f776e61626c653a2063616c6c6572206973206e6f7420746865206f776e657281525060200191505060405180910390fd5b600073ffffffffffffffffffffffffffffffffffffffff166000809054906101000a900473ffffffffffffffffffffffffffffffffffffffff1673ffffffffffffffffffffffffffffffffffffffff167f8be0079c531659141344cd1fd0a4f28419497f9722a3daafe3b4186f6b6457e060405160405180910390a360008060006101000a81548173ffffffffffffffffffffffffffffffffffffffff021916908373ffffffffffffffffffffffffffffffffffffffff160217905550565b600281815481101515610b9557fe5b9060005260206000209060030201600091509050806000015490806001018054600181600116156101000203166002900480601f016020809104026020016040519081016040528092919081815260200182805460018160011615610100020316600290048015610c475780601f10610c1c57610100808354040283529160200191610c47565b820191906000526020600020905b815481529060010190602001808311610c2a57829003601f168201915b5050505050908060020154905083565b6000806000905060008090505b600280549050811015610cca5781600282815481101515610c8157fe5b9060005260206000209060030201600201541115610cbd57600281815481101515610ca857fe5b90600052602060002090600302016000015491505b8080600101915050610c64565b508091505090565b60056020528060005260406000206000915054906101000a900460ff1681565b60008060009054906101000a900473ffffffffffffffffffffffffffffffffffffffff16905090565b60008060009054906101000a900473ffffffffffffffffffffffffffffffffffffffff1673ffffffffffffffffffffffffffffffffffffffff163373ffffffffffffffffffffffffffffffffffffffff1614905090565b60046020528060005260406000206000915054906101000a900460ff1681565b60006170804210151515610e0e576040517f08c379a00000000000000000000000000000000000000000000000000000000081526004018080602001828103825260108152602001807f456c656374696f6e20697320646f6e650000000000000000000000000000000081525060200191505060405180910390fd5b600282815481101515610e1d57fe5b9060005260206000209060030201600201549050919050565b60006170804210151515610eb2576040517f08c379a00000000000000000000000000000000000000000000000000000000081526004018080602001828103825260108152602001807f456c656374696f6e20697320646f6e650000000000000000000000000000000081525060200191505060405180910390fd5b600182815481101515610ec157fe5b9060005260206000209060040201600201549050919050565b610ee2610d1b565b1515610f56576040517f08c379a00000000000000000000000000000000000000000000000000000000081526004018080602001828103825260208152602001807f4f776e61626c653a2063616c6c6572206973206e6f7420746865206f776e657281525060200191505060405180910390fd5b60006001600260606040519081016040528060008152602001858152602001600081525090806001815401808255809150509060018203906000526020600020906003020160009091929091909150600082015181600001556020820151816001019080519060200190610fcb929190611674565b5060408201518160020155505003905080600282815481101515610feb57fe5b9060005260206000209060030201600001819055505050565b617080421015151561107e576040517f08c379a00000000000000000000000000000000000000000000000000000000081526004018080602001828103825260108152602001807f456c656374696f6e20697320646f6e650000000000000000000000000000000081525060200191505060405180910390fd5b600560003373ffffffffffffffffffffffffffffffffffffffff1673ffffffffffffffffffffffffffffffffffffffff16815260200190815260200160002060009054906101000a900460ff1615156110d657600080fd5b60008090505b82518110156111645781818151811015156110f357fe5b9060200190602002015160036000858481518110151561110f57fe5b9060200190602002015173ffffffffffffffffffffffffffffffffffffffff1673ffffffffffffffffffffffffffffffffffffffff1681526020019081526020016000208190555080806001019150506110dc565b505050565b611171610d1b565b15156111e5576040517f08c379a00000000000000000000000000000000000000000000000000000000081526004018080602001828103825260208152602001807f4f776e61626c653a2063616c6c6572206973206e6f7420746865206f776e657281525060200191505060405180910390fd5b6111ee816114a4565b50565b617080421015151561126b576040517f08c379a00000000000000000000000000000000000000000000000000000000081526004018080602001828103825260108152602001807f456c656374696f6e20697320646f6e650000000000000000000000000000000081525060200191505060405180910390fd5b600460003373ffffffffffffffffffffffffffffffffffffffff1673ffffffffffffffffffffffffffffffffffffffff16815260200190815260200160002060009054906101000a900460ff1615151561132d576040517f08c379a00000000000000000000000000000000000000000000000000000000081526004018080602001828103825260158152602001807f596f75204861766520566f746564204265666f7265000000000000000000000081525060200191505060405180910390fd5b60018181548110151561133c57fe5b906000526020600020906004020160030154600360003373ffffffffffffffffffffffffffffffffffffffff1673ffffffffffffffffffffffffffffffffffffffff1681526020019081526020016000205414151561139a57600080fd5b6001600460003373ffffffffffffffffffffffffffffffffffffffff1673ffffffffffffffffffffffffffffffffffffffff16815260200190815260200160002060006101000a81548160ff0219169083151502179055506114256001808381548110151561140557fe5b9060005260206000209060040201600201546115ea90919063ffffffff16565b60018281548110151561143457fe5b90600052602060002090600402016002018190555061147d600160028381548110151561145d57fe5b9060005260206000209060030201600201546115ea90919063ffffffff16565b60028281548110151561148c57fe5b90600052602060002090600302016002018190555050565b600073ffffffffffffffffffffffffffffffffffffffff168173ffffffffffffffffffffffffffffffffffffffff161415151561152c576040517f08c379a000000000000000000000000000000000000000000000000000000000815260040180806020018281038252602681526020018061171a6026913960400191505060405180910390fd5b8073ffffffffffffffffffffffffffffffffffffffff166000809054906101000a900473ffffffffffffffffffffffffffffffffffffffff1673ffffffffffffffffffffffffffffffffffffffff167f8be0079c531659141344cd1fd0a4f28419497f9722a3daafe3b4186f6b6457e060405160405180910390a3806000806101000a81548173ffffffffffffffffffffffffffffffffffffffff021916908373ffffffffffffffffffffffffffffffffffffffff16021790555050565b600080828401905083811015151561166a576040517f08c379a000000000000000000000000000000000000000000000000000000000815260040180806020018281038252601b8152602001807f536166654d6174683a206164646974696f6e206f766572666c6f77000000000081525060200191505060405180910390fd5b8091505092915050565b828054600181600116156101000203166002900490600052602060002090601f016020900481019282601f106116b557805160ff19168380011785556116e3565b828001600101855582156116e3579182015b828111156116e25782518255916020019190600101906116c7565b5b5090506116f091906116f4565b5090565b61171691905b808211156117125760008160009055506001016116fa565b5090565b9056fe4f776e61626c653a206e6577206f776e657220697320746865207a65726f2061646472657373a165627a7a72305820c0a506fb8edd44785ab1cbcf2250274b755cde5a590226eba7bd1d0a737e4e3e0029",
  "source": "pragma solidity ^0.5.2;\r\n\r\nimport \"openzeppelin-solidity/contracts/ownership/Ownable.sol\";\r\n\r\nimport \"openzeppelin-solidity/contracts/math/SafeMath.sol\";\r\n\r\n\r\ncontract Election is Ownable {\r\n//    event vote();\r\n    using SafeMath for uint256;\r\n //uint public candidatesCountPerson;\r\n //uint public candidatesCountList;\r\nstruct candidatePerson{ \r\n   uint id;\r\n   string name;\r\n   uint votecount;  \r\n   uint col;\r\n}\r\nstruct candidateList{\r\n   uint id;\r\n   string name;\r\n   uint votecount;  \r\n}\r\ncandidatePerson[] public person;\r\ncandidateList[] public list;\r\n//accounts that have voted\r\n// list of uni students\r\nmapping(address => uint) studentsAdd;\r\nmapping (address => bool) public voters;\r\nmapping(address => bool) public candidates; //check that person cant vote \r\n//display result for each candidate\r\n//mapping (uint => candidatePerson) candidatePersonCount;\r\n//mapping (uint => candidateList) candidateListCount;\r\nmodifier timer {\r\n    require (now >= 8 hours,\"Election is done\");\r\n    _;\r\n}\r\n\r\nfunction addStudents(address[] memory  add, uint[] memory col) public timer{\r\nrequire(candidates[msg.sender]);\r\n//     require (add =! person.id ); \r\n    for(uint i= 0; i < add.length; i++ ) {\r\n        studentsAdd[add[i]] = col[i];\r\n    }\r\n}\r\n\r\nfunction createCandidatePerson(string memory  _name, uint _col) public onlyOwner {\r\n uint key =  person.push(candidatePerson(0,_name, 0 , _col)) - 1; \r\n person[key].id = key;\r\n} \r\nfunction createCandidateList(string memory _name) public onlyOwner{\r\n  uint id = list.push(candidateList(0,_name,0)) -1 ;\r\n  list[id].id = id; \r\n}\r\nfunction voting(uint _candidateId)public timer {    \r\nrequire(!voters[msg.sender],\"You Have Voted Before\"); //check if user have voted before\r\nrequire(studentsAdd[msg.sender] == person[_candidateId].col); // check student col if it equal to candidate col\r\n// require to valid candidate(person)\r\nvoters[msg.sender] = true; //user have vote\r\nperson[_candidateId].votecount=person[_candidateId].votecount.add(1);\r\nlist[_candidateId].votecount=list[_candidateId].votecount.add(1);\r\n// candidatePersonCount[_candidateId].votecount= candidatePersonCount[_candidateId].votecount.add(1);\r\n// candidateListCount[_candidateId].votecount= candidateListCount[_candidateId].votecount.add(1);\r\n}\r\n\r\n//to disply result for every candidate\r\nfunction getCountP(uint _candidateId) timer public view returns (uint) { \r\n    return person[_candidateId].votecount;\r\n}\r\n\r\nfunction getCountL(uint _candidateId) timer public view returns (uint) {\r\n    return list[_candidateId].votecount;\r\n}\r\n //final result\r\nfunction resultP() public view returns(uint) {\r\n    uint max=0;\r\nfor(uint i=0; i<person.length;i++){\r\n    if(person[i].votecount > max)\r\n        max=person[i].id;\r\n}\r\nreturn max;\r\n}\r\n\r\nfunction resultL() public view returns(uint) {\r\n    uint max=0;\r\nfor(uint i=0; i<list.length;i++){\r\n    if(list[i].votecount > max)\r\n        max=list[i].id;\r\n}\r\nreturn max;\r\n}\r\n\r\n\r\n\r\n}",
  "sourcePath": "C:/Users/ayaal/Desktop/test/contracts/Election.sol",
  "compiler": {
    "name": "solc",
    "version": "0.5.2+commit.1df8f40c.Emscripten.clang"
  },
  "schemaVersion": "3.0.16",
  "updatedAt": "2019-10-23T10:31:22.227Z",
  "devdoc": {
    "methods": {
      "isOwner()": {
        "details": "Returns true if the caller is the current owner."
      },
      "owner()": {
        "details": "Returns the address of the current owner."
      },
      "renounceOwnership()": {
        "details": "Leaves the contract without owner. It will not be possible to call `onlyOwner` functions anymore. Can only be called by the current owner.     * > Note: Renouncing ownership will leave the contract without an owner, thereby removing any functionality that is only available to the owner."
      },
      "transferOwnership(address)": {
        "details": "Transfers ownership of the contract to a new account (`newOwner`). Can only be called by the current owner."
      }
    }
  },
  "userdoc": {
    "methods": {}
  }
}